:100000000C945C000C94C8070C94F5070C948200C7
:100010000C9482000C9482000C9482000C94820058
:100020000C9482000C9482000C9482000C94820048
:100030000C9482000C9482000C9482000C94820038
:100040000C9422080C9482000C94710A0C94820087
:100050000C9482000C9482000C9482000C94820018
:100060000C9482000C948200C006970700000007E1
:100070000002010000030406000000000000000070
:10008000010204081020408001020408102001022F
:1000900004081020040404040404040402020202FC
:1000A00002020303030303030000232629000025A3
:1000B000282B000024272A0011241FBECFEFD4E0F4
:1000C000DEBFCDBF11E0A0E0B1E0EAEAFAE102C094
:1000D00005900D92A034B107D9F712E0A0E4B1E089
:1000E00001C01D92AF32B107E1F710E0CCE6D0E0DD
:1000F00004C02297FE010E94510DC836D107C9F7EE
:100100000C9487060C9400000F931F93CF93DF93FA
:10011000EC018901798368835B834A8361E088818C
:100120000E94450961E08A810E94450960E088815A
:100130000E94AC0960E08A810E94AC091D821C8289
:10014000C8010297029718F41F870E8704C08FEF2B
:100150009FEF9F878E87DF91CF911F910F91089519
:100160000F931F93CF93DF93EC0189017983688309
:100170005B834A8361E088810E94450961E08A814E
:100180000E94450960E088810E94AC0960E08A8194
:100190000E94AC091D821C82C8010297029718F4C4
:1001A0001F870E8704C08FEF9FEF9F878E87DF9199
:1001B000CF911F910F910895FC018685978597FD3A
:1001C00003C081E090E008958FEF9FEF0895CF92F4
:1001D000DF92EF92FF920F931F936C01FC018481D9
:1001E0009581019695838483E284F3840485158543
:1001F0000E944708E61AF70A080B190B81E090E005
:10020000B7010E94EB0C882777FD8095982F0E94FC
:10021000290C20E030E04AE754E40E94A30C28E9CE
:1002200039EF4EE85CE30E94A30C27EE3DE147E284
:100230005DE30E94A30CF601668377838087918734
:100240001F910F91FF90EF90DF90CF900895CF9284
:10025000DF92EF92FF920F931F936C01FC01848158
:100260009581019795838483E284F38404851585C1
:100270000E944708E61AF70A080B190B8FEF9FEF49
:10028000B7010E94EB0C882777FD8095982F0E947C
:10029000290C20E030E04AE754E40E94A30C28E94E
:1002A00039EF4EE85CE30E94A30C27EE3DE147E204
:1002B0005DE30E94A30CF6016683778380879187B4
:1002C0001F910F91FF90EF90DF90CF900895FC0168
:1002D000158214820895FC01848195810895FC01A2
:1002E00066817781808591850895FC01648175819F
:1002F000882777FD8095982F0E94290C28E939EFEF
:100300004EE85CE30E94A30C27EE3DE147E25DE38B
:100310000E94A30C0895EF92FF920F931F937C010C
:1003200002EA11E060E071E0C8010E94DC06F7011A
:1003300064817581C8010E948B071F910F91FF9006
:10034000EF900895EF92FF920F931F937C0102EAC2
:1003500011E040E855E260E070E0C8010E94C90683
:10036000F70164817581C8010E948B07F7016281E2
:100370007381C8010E948B07F70160817181C801F8
:100380000E948B071F910F91FF90EF9008950F939C
:100390001F93CF93DF938C01EB016F3F710521F029
:1003A0001CF0CFEFD0E00AC08FEF613078071CF46B
:1003B000C1E0DFEF0DC01616170644F460E070E0F0
:1003C000F80182810E94F108BE010CC077FF0FC0C6
:1003D000662777276C1B7D0BF80182810E94F1084C
:1003E00060E070E0F80180810E94F1080AC060E0DE
:1003F000F80182810E94AC0960E0F80180810E94CE
:10040000AC09DF91CF911F910F9108950F931F9326
:10041000CF93DF93EC018A018C819D81841795072E
:10042000B4F4CB0177FF04C088279927861B970B6C
:10043000BC01CE010E94C70104C08AE090E00E9486
:1004400081088C819D8180179107BCF318C04817E3
:100450005907ACF477FF03C0709561957F4F709595
:1004600061957F4FCE010E94C70104C08AE090E0F1
:100470000E9481088C819D8108171907BCF3DF91C8
:10048000CF911F910F9108950F931F93CF93DF93F7
:100490008C01EB0160E070E0FC0182810E94F108B8
:1004A00060E070E0F80180810E94F1081C161D06D2
:1004B0003CF4BE01882777FD8095982F0E945F0845
:1004C000DF91CF911F910F9108950F931F93CF93B9
:1004D000DF938C01EB016FEF70E0FC0182810E94E1
:1004E000F1086FEF70E0F80180810E94F1081C169E
:1004F0001D063CF4BE01882777FD8095982F0E9449
:100500005F08DF91CF911F910F910895FC015183F6
:10051000408373836283758364830895FC015183F0
:10052000408373836283758364830895EF92FF929F
:100530000F931F937C018B01FC01808191810E94AC
:10054000C701B801F701828193810E94C7011F9101
:100550000F91FF90EF900895CF92DF92EF92FF926C
:100560000F931F936C017B0160E070E0FC018081C0
:1005700091810E94C70160E070E0F6018281938161
:100580000E94C7010027F7FC0095102FC801B70192
:100590000E945F081F910F91FF90EF90DF90CF9026
:1005A0000895FC01848195810E94E7000895FC0173
:1005B000848195810E9427010895FC0184819581A1
:1005C0000E948B010895FC017183608380E090E0BC
:1005D000A0E0B0E082839383A483B583868397836E
:1005E000A087B18782879387A487B58786879787F7
:1005F000A08BB18B60E080810E9445090895FC01C9
:100600007183608380E090E0A0E0B0E08283938318
:10061000A483B58386839783A087B18782879387D6
:10062000A487B58786879787A08BB18B60E0808190
:100630000E94450908958F929F92AF92BF92CF92E8
:10064000DF92EF92FF920F931F93CF93DF93CDB77B
:10065000DEB764970FB6F894DEBF0FBECDBF6C0156
:100660004B01DE011196ECE0F1E084E101900D9286
:100670008150E1F70F2EF0E0EF2EF0E0FF2EF0E0DA
:100680000F2FF0E01F2FF02D5E010894A11CB11C6C
:10069000F60180810E94D308F501819391935F0157
:1006A000AA2797FDA095BA2FBC01CD010E94290C65
:1006B0009B01AC01C801B7010E94840B7B018C0136
:1006C00069E170E080E090E00E945F08CE0145960D
:1006D000A816B906E9F620E030E040E251E4C8018E
:1006E000B7010E94C60BF60166877787808B918BD6
:1006F0008928C9F140E855E260E070E082EA91E0C3
:100700000E94C9068E010F5F1F4FF8016191719120
:100710008F0182EA91E00E94830760E271E082EA41
:1007200091E00E94DC060A151B0579F764E271E08E
:1007300082EA91E00E94FC0666E271E082EA91E0C2
:100740000E94DC06F601668577858089918920E024
:1007500030E040E251E40E94A30C0E940C0C82EABB
:1007600091E00E948B07F6016685778580899189E3
:1007700064960FB6F894DEBF0FBECDBFDF91CF9168
:100780001F910F91FF90EF90DF90CF90BF90AF90AF
:100790009F908F900895FC01668577858089918967
:1007A0000895FC0162817381848195810895FC0123
:1007B000628173818481958128E939EF4EE85CE399
:1007C0000E94A30C0895FC01668177818085918544
:1007D0000895FC01668177818085918528E939EF4C
:1007E0004EE85CE30E94A30C0895FC0180810E9406
:1007F000D30808958F929F92AF92BF92CF92DF92CB
:10080000EF92FF920F931F936C01FC0180810E9475
:10081000D308AA2797FDA095BA2FBC01CD010E944D
:10082000290C4B015C012DE33AE047E15FE30E94B4
:10083000830BF601E684F78400891189A8019701EA
:100840000E94830B2AE939E949E150E40E94C60B72
:10085000F6016683778380879187A8019701C50198
:10086000B4010E94830B2AE939E949E150E40E946E
:10087000C60B7B018C01F6016683778380879187A5
:100880002FE632E143E85BE30E94A30C9B01AC013D
:10089000F60162817381848195810E94840B4B01F2
:1008A0005C01F6012285338544855585C801B70171
:1008B0000E94830B2FE632E143E05BEB0E94A30C26
:1008C0009B01AC01C501B4010E94840BF601628357
:1008D000738384839583E286F3860487158728E9EA
:1008E00039EF4EE85CE3C801B7010E94A30C1F91E9
:1008F0000F91FF90EF90DF90CF90BF90AF909F90BF
:100900008F900895FC01CB017183608361E00E94A8
:1009100045090895FC01CB017183608361E00E9469
:1009200045090895FC0161E080810E94AC090895A9
:10093000FC0160E080810E94AC090895CF92DF92B3
:10094000EF92FF920F931F93CF93DF937C016A0185
:10095000EC01EC81FD81848195818417950704F574
:10096000EB0177FF04C0CC27DD27C61BD70BBE01E8
:10097000F701808191810E94C701BE01E7018A8150
:100980009B810E94C70184E190E00E948108E701F9
:10099000EC81FD81848195818C159D052CF5F3CF2B
:1009A000481759070CF577FF03C0709561957F4F85
:1009B00000271127061B170BB801F70180819181D1
:1009C0000E94C701B801E7018A819B810E94C7018B
:1009D00084E190E00E948108E701EC81FD8184813F
:1009E0009581C816D906A4F3DF91CF911F910F917D
:1009F000FF90EF90DF90CF900895CF93DF93EC01BD
:100A0000EC81FD8184819581DF91CF910895CF9311
:100A1000DF93EC01EC81FD81668177818085918592
:100A2000DF91CF910895CF93DF93EC01EC81FD81AD
:100A300064817581882777FD8095982F0E94290C05
:100A400028E939EF4EE85CE30E94A30C27EE3DE174
:100A500047E25DE30E94A30CDF91CF91089540E847
:100A600055E260E070E082EA91E00E94C90641E050
:100A700050E069E676E081E00E94980760E070E06F
:100A80008AE691E00E941B0360E084E00E94450931
:100A900088E691E00E94920406C062E370E080E084
:100AA00090E00E945F0884E00E946309892BA9F30B
:100AB00088E691E00E9498040895CF92DF92EF9229
:100AC000FF920F931F93CF93DF930E944708609389
:100AD00050017093510180935201909353012091E2
:100AE0005001309151014091520150915301809138
:100AF0004C0190914D01A0914E01B0914F017901AF
:100B00008A01E81AF90A0A0B1B0BD801C7010497DE
:100B1000A105B105D4F220934C0130934D014093CF
:100B20004E0150934F018CE791E00E9413057B0129
:100B30008C01609348017093490180934A0190931E
:100B40004B01209144013091450140914601509163
:100B500047010E94830B20E030E04AE754E40E9402
:100B6000A30C20E030E040E85EE30E94A30C609319
:100B70004001709341018093420190934301E092C0
:100B80004401F092450100934601109347018CE720
:100B900091E00E941305609358017093590180936E
:100BA0005A0190935B018091400190914101A09185
:100BB0004201B091430180935C0190935D01A09349
:100BC0005E01B0935F018AE691E00E94D7036093D3
:100BD00060017093610180936201909363018AE6E2
:100BE00091E00E94FA036093640170936501809321
:100BF000660190936701E0905C01F0905D010091C7
:100C00005E0110915F012DEC3CEC4CE45DE3C8010A
:100C1000B7010E94330C88237CF42DEC3CEC4CE4AF
:100C20005DEBC801B7010E94360C18162CF488E65B
:100C300091E00E94980404C088E691E00E9492042A
:100C400080E090E0A0E0B0E08093540190935501E3
:100C5000A0935601B09357017C018D01CEE2D1E003
:100C600088E5C82E81E0D82E699179918991999172
:100C7000F60121913191419151916F010E94A30C94
:100C80009B01AC01C801B7010E94840B7B018C0160
:100C9000F1E0CE33DF0741F720E030E040EF51ECE8
:100CA0000E94A30C609354017093550180935601E8
:100CB000909357010E940C0C8CE791E00E949602E1
:100CC000DF91CF911F910F91FF90EF90DF90CF9028
:100CD0000895CF93DF9382E00E946309EC0183E0E3
:100CE0000E946309209719F4019751F404C02197D9
:100CF00039F4892B29F48CE791E00E94D70204C0D3
:100D00008CE791E00E94D102DF91CF910895CFEF5F
:100D1000D4E0DEBFCDBF0E948E080E942F050E9446
:100D20005D05FDCF6F5F7F4F51F5019741F523E0E2
:100D300030E046E050E069E070E082E991E00E9436
:100D4000B00020E030E04BE050E06AE070E082E884
:100D500091E00E94B00042E851E062E971E08CE766
:100D600091E00E948E0260E070E08AE691E00E94CD
:100D7000FF026DE070E088E691E00E948A04089529
:100D80006FEF7FEF81E090E00E9492060895089552
:100D90000895CB01BA010E94F70908950E94380A0C
:100DA000992708950E94490A08950E94680A0895A3
:100DB000862F0E94AF0A0895CB010E94B60A0895BB
:100DC000862F0E94AF0A08950F931F938C016DE048
:100DD0000E94D8066AE0C8010E94D8061F910F91B0
:100DE00008950F931F938C010E94D806C8010E949A
:100DF000E4061F910F9108950F931F938C010E9499
:100E0000DC06C8010E94E4061F910F9108950F931C
:100E10001F938C010E94E006C8010E94E4061F9106
:100E20000F910895CB01BA013327442755270E941B
:100E3000C30A08952AE00E94120708950F931F9392
:100E40008C010E941A07C8010E94E4061F910F91AD
:100E50000895AB01662777270E941A0708950F931C
:100E60001F938C010E942907C8010E94E4061F916C
:100E70000F910895EF92FF920F931F93CF93DF93FB
:100E8000EC017A018B0177FF0BC06DE20E94D8065E
:100E900010950095F094E094E11CF11C011D111DCA
:100EA0002AE0B801A701CE010E941207DF91CF917D
:100EB0001F910F91FF90EF9008950F931F938C0156
:100EC0000E943A07C8010E94E4061F910F910895FD
:100ED0002115310521F4642F0E94D80608952A3087
:100EE000310519F40E943A0708950E9412070895E7
:100EF0000F931F938C010E946807C8010E94E406AB
:100F00001F910F910895AB01662757FD6095762FCD
:100F10000E943A0708950F931F938C010E94830744
:100F2000C8010E94E4061F910F9108950895089545
:100F30008230E8F4E82FFF27EE0FFF1FED55FE4F3C
:100F400071836083882341F4809169008C7F842BB6
:100F500080936900E89A089580916900837F440F27
:100F6000551F440F551F842B80936900E99A0895FB
:100F7000823068F4882311F4E89801C0E998E82FDA
:100F8000FF27EE0FFF1FED55FE4F118210820895CF
:100F90001F920F920FB60F9211242F933F934F93EE
:100FA0005F936F937F938F939F93AF93BF93EF93D1
:100FB000FF938091A3019091A401892B29F0E091E6
:100FC000A301F091A4010995FF91EF91BF91AF9119
:100FD0009F918F917F916F915F914F913F912F9151
:100FE0000F900FBE0F901F9018951F920F920FB683
:100FF0000F9211242F933F934F935F936F937F939F
:101000008F939F93AF93BF93EF93FF938091A5012D
:101010009091A601892B29F0E091A501F091A601FC
:101020000995FF91EF91BF91AF919F918F917F9122
:101030006F915F914F913F912F910F900FBE0F9045
:101040001F9018951F920F920FB60F9211248F9335
:101050009F93AF93BF938091AB019091AC01A0910E
:10106000AD01B091AE010196A11DB11D8093AB0100
:101070009093AC01A093AD01B093AE01BF91AF913D
:101080009F918F910F900FBE0F901F9018956091B8
:10109000AB017091AC018091AD019091AE0127E060
:1010A000660F771F881F991F2A95D1F72DE730E02B
:1010B00040E050E00E94FE0CCA01B9010895AF92D1
:1010C000BF92CF92DF92EF92FF920F931F935B013B
:1010D0006C010E9447087B018C010E9447086E1931
:1010E0007F09800B910B6A157B058C059D05A8F384
:1010F0001F910F91FF90EF90DF90CF90BF90AF9036
:101100000895019751F0880F991F880F991F029732
:101110002FB7F8940197F1F72FBF089578941092A4
:10112000AB011092AC011092AD011092AE0184B5EA
:10113000826084BD84B5816084BD85B5826085BDD3
:1011400085B5816085BDEEE6F0E0808181608083B9
:10115000E1E8F0E08081826080838081816080832B
:10116000E0E8F0E0808181608083E1EBF0E0808165
:1011700084608083E0EBF0E0808181608083EAE737
:10118000F0E08081846080838081826080838081C0
:10119000816080838081806880831092C10008957F
:1011A00080933E01089590913E019295990F990F79
:1011B000907C8F70982B90937C0080917A00806453
:1011C00080937A0080917A0086FDFCCF2091780090
:1011D000809179009927982F88273327822B932B8A
:1011E00008951F93CF93DF93182FEB0161E00E94C6
:1011F0004509E12FFF27E459FF4F8491833051F4D3
:1012000080918000806880938000D0938900C09393
:10121000880037C0843051F48091800080628093D0
:101220008000D0938B00C0938A002BC0813029F4BA
:1012300084B5806884BDC7BD24C0823029F484B5DC
:10124000806284BDC8BD1DC0863041F48091B0006D
:1012500080688093B000C093B30013C0873041F41E
:101260008091B00080628093B000C093B40009C048
:10127000C038D10514F460E001C061E0812F0E9404
:10128000AC09DF91CF911F910895282F3327C90111
:1012900080589F4FFC0194912C563F4FF901849147
:1012A000882381F0E82FFF27EE54FF4FE491FF27BA
:1012B000662329F480819095892380830895808115
:1012C000892B80830895482F5527CA0184599F4F41
:1012D000FC012491CA0180589F4FFC0194914C5607
:1012E0005F4FFA0134913323A1F1222331F12330EE
:1012F00021F4809180008F7705C0243031F48091F3
:1013000080008F7D8093800018C0213019F484B54F
:101310008F7704C0223021F484B58F7D84BD0DC049
:10132000263021F48091B0008F7705C0273029F452
:101330008091B0008F7D8093B000E32FFF27E855A8
:10134000FF4FE491FF278081892319F081E090E02D
:10135000089580E090E00895482F5527CA018459E8
:101360009F4FFC012491CA0180589F4FFC0194912A
:101370004C565F4FFA0134913323C1F1222331F1EE
:10138000233021F4809180008F7705C0243031F420
:10139000809180008F7D8093800018C0213019F4E7
:1013A00084B58F7704C0223021F484B58F7D84BD4D
:1013B0000DC0263021F48091B0008F7705C0273012
:1013C00029F48091B0008F7D8093B000E32FFF2738
:1013D000E355FF4FE491FF27662329F48081909520
:1013E0008923808308958081892B80830895EF92DB
:1013F000FF920F931F937B018C0122E030E040E0CD
:1014000050E00E94200D205C3D4B404F5F4FCA01D1
:10141000B901A80197010E94200D215030404040A1
:101420005040BB2757FDBA95A52F942F832F2F5FD0
:101430003F4F4F4F5F4F8093C50021502093C40012
:10144000E1ECF0E08081806180838081886080832E
:101450008081806880831F910F91FF90EF900895A5
:10146000982F8091C00085FFFCCF9093C60008950F
:101470008091A9019091AA012091A7013091A80122
:10148000821B930B80589F4F60E870E00E94EB0C2A
:1014900008954091A7015091A8018091A9019091D0
:1014A000AA018417950719F48FEF9FEF0895FA01A9
:1014B000E155FE4F2081CA01019660E870E00E946C
:1014C000EB0C9093A8018093A701822F9927089590
:1014D0008091A7019091A8019093AA018093A901FE
:1014E00008951F920F920FB60F9211242F933F93DE
:1014F0004F935F936F937F938F939F93AF93BF931C
:10150000EF93FF934091C600E091A901F091AA01E9
:10151000CF01019660E870E00E94EB0C9C01809185
:10152000A7019091A8012817390739F0E155FE4F1E
:1015300040833093AA012093A901FF91EF91BF91BD
:10154000AF919F918F917F916F915F914F913F915B
:101550002F910F900FBE0F901F90189508950E9425
:10156000300A08958AE00E94AF0A0895CF93DF936E
:10157000EC0103C021960E94AF0A88818823D1F72D
:10158000DF91CF9108952F923F924F925F926F9289
:101590007F928F929F92AF92BF92CF92DF92EF9203
:1015A000FF920F931F93CF93DF93CDB7DEB7A09732
:1015B0000FB6F894DEBF0FBECDBF6B017C011901E1
:1015C0002A01611571058105910521F480E30E94CE
:1015D000AF0A4BC06624772443015E010894A11C26
:1015E000B11C8501060D171DC701B601A2019101AD
:1015F0000E94FE0CF80160830894611C711C811C20
:10160000911CC701B601A20191010E94FE0C690163
:101610007A01211531054105510519F77301089427
:10162000E108F108EA0CFB1CAA24BB24650111C0E7
:10163000F70180818A3010F4805D01C0895C0E94CE
:10164000AF0A0894A108B108C108D1080894E108BC
:10165000F10888279927DC0186199709A809B90993
:10166000A816B906CA06DB0619F7A0960FB6F894B5
:10167000DEBF0FBECDBFDF91CF911F910F91FF90C5
:10168000EF90DF90CF90BF90AF909F908F907F9022
:101690006F905F904F903F902F900895EF92FF9240
:1016A0000F931F937B018C0197FF0BC08DE20E946B
:1016B000AF0A10950095F094E094E11CF11C011D17
:1016C000111D2AE030E040E050E0C801B7010E945F
:1016D000C30A1F910F91FF90EF90089520E130E031
:1016E00040E050E00E94C30A089528E030E040E066
:1016F00050E00E94C30A089522E030E040E050E04C
:101700000E94C30A08955058192EEFD001D0D2C0BC
:10171000BA176207730784079507B1F188F40EF4CE
:1017200010940B2EBA2FA02D062E622F202D072EDF
:10173000732F302D082E842F402D092E952F502DDC
:10174000FF275523B9F0591B49F0573E98F04695AD
:1017500037952795A795F0405395C9F776F0BA0FBE
:10176000621F731F841F30F4879577956795B7952F
:10177000F040939517FA0F2E0895BF1BBB27BA0BA5
:10178000620B730B840BF6CFDEF6DBC0AED001D05C
:1017900091C0552359F0992369F09F575F57951BC6
:1017A00033F442F4903811F4915805C09BC091581D
:1017B0009F3F09F4C6C0BB27112462177307840733
:1017C00030F4660F771F881FBB1F915098F311D01C
:1017D0000F920FD00F920DD0A0E8261737074807B9
:1017E0001B0609F0A048BA2F602D7F918F9100242D
:1017F0000895A0E80024621773078407B10528F054
:10180000621B730B840BB1090A2A660F771F881FAE
:10181000BB1FA69581F7089597FB73D09F3738F0CB
:10182000FEE9F91B982F872F762F6B2F05C086C0F6
:101830009695879577956795F150D0F73EF49095FA
:101840008095709561957F4F8F4F9F4F0895E894D5
:1018500003C097FB0EF4F3DFB62F672F782F892F85
:101860009EE9002427C00ED05EF004C00BD026F005
:1018700001C008D019F020F48FEF089580E008959A
:1018800081E0089597FB092E052600F8689430D072
:10189000E89407FC07C0621773078407950721F0D7
:1018A00008F400940794989408959A95BB0F661FC6
:1018B000771F881F11249923A1F08823B2F79F3F37
:1018C00059F0BB0F48F421F4002011F460FF04C06C
:1018D0006F5F7F4F8F4F9F4F881F9795879597F921
:1018E00008952CC09FEF80EC0895052E092607FA75
:1018F000440F551F5F3F79F0AA27A51708F051E064
:101900004795880F991F9F3F31F0BB27B91708F003
:1019100091E0879508959F919F911124E3CF97FBC4
:10192000880F991F9F3F31F0BB27B91708F091E04E
:10193000879508959F919F911124D4CF662777278B
:10194000882799270895D1DF01D0B4CF992339F0A2
:10195000552329F09F575F57950F13F49AF1F1CF54
:1019600091589F3FE1F3629FA12D0F92BB27639F88
:10197000A00DB11DEE27729FA00DB11DEE1FAF93FC
:10198000AA27649FB00DE11D739FB00DE11DAA1F32
:101990006627829FB00DE11DA61F5527749FE00D9D
:1019A000A11D551F839FE00DA11D561F849FA00DF3
:1019B000511D852F7A2F6E2F1F900F9088231AF4B8
:1019C000939539F48FCF000C111CBB1F661F771F36
:1019D000881F0128089597FB092E07260AD077FD56
:1019E00004D049D006D000201AF4709561957F4F3D
:1019F0000895F6F7909581959F4F0895A1E21A2ECC
:101A0000AA1BBB1BFD010DC0AA1FBB1FEE1FFF1FA2
:101A1000A217B307E407F50720F0A21BB30BE40BF2
:101A2000F50B661F771F881F991F1A9469F7609539
:101A30007095809590959B01AC01BD01CF010895F3
:101A400097FB092E05260ED057FD04D0D7DF0AD00C
:101A5000001C38F450954095309521953F4F4F4FDD
:101A60005F4F0895F6F790958095709561957F4F3B
:101A70008F4F9F4F0895AA1BBB1B51E107C0AA1FA0
:101A8000BB1FA617B70710F0A61BB70B881F991F1F
:101A90005A95A9F780959095BC01CD010895EE0F58
:0A1AA000FF1F0590F491E02D09945A
:101AAA004E5854204D6F746F723A200000000000A7
:101ABA00000000000000000000000000000000001C
:101ACA00202A2000200043616C69623A20000B063C
:101ADA004EC2AF25E6C165EA61C2C520A2C00100B7
:00000001FF
