:1000000069EF03F00000000000EF00F000000000C6
:0A0010000000000000000000F3D71C
:0E001C00030E0D6E0D2EFED700000000120028
:10002A00560E0C6EB50E0D6E0D2EFED70C2EFCD78D
:06003A00000000001200AE
:0E004000C70E0D6E0D2EFED700000000120040
:10004E003DBE02D0819E01D0818E3DBC02D0819CEE
:10005E0001D0818C3DBA02D0819A01D0818A3DB8FF
:10006E0002D0819801D0818830B002D0828C01D02C
:10007E00829C828ECCDF829E3DB602D0819E01D0C4
:10008E00818E3DB402D0819C01D0818C3DB202D0D4
:10009E00819A01D0818A3DB002D0819801D08188A9
:1000AE0030B002D0828C01D0829C828EB0DF829ED4
:0C00BE0030A002D0B3DF01D0BCDF120084
:0C00CA0030903CC03DF0BEDF30801200E2
:1000D6000FD0800E376E19D0C00E376E16D0940E24
:1000E600376E13D0D40E376E10D0800E376E0DD00B
:1000F6003750010AEEE03750020AEEE03750030AA5
:10010600EEE03750040AEEE0F0D73804006E3750C0
:10011600002600C037F000C03DF096DF30903B6A05
:100126003B503924E96E000E3A20EA6EEE520BE09F
:100136003B503924E96E000E3A20EA6EEECF3CF0D1
:0A014600C1DF3B2AEDD73080120024
:100150000B6A0A6A096A086A0E6A03340836045090
:10016000085E0550D8A0053C095E0650D8A0063CA4
:100170000A5E0750D8A0073C0B5EE86AD8A0010EC3
:100180000E5E0336070E0C6E0334083609360A3647
:100190000B360E36045003A012D0085E0550D8A0CE
:1001A000053C095E0650D8A0063C0A5E0750D8A060
:1001B000073C0B5EE86AD8A0010E0E5E11D008263F
:1001C0000550D8B0053C09260650D8B0063C0A2692
:1001D0000750D8B0073C0B26E86AD8B0010E0E26AF
:1001E00003360C2ED1D70234083609360A360B36C0
:1001F0000E36045003A012D0085E0550D8A0053C6E
:10020000095E0650D8A0063C0A5E0750D8A0073CFD
:100210000B5EE86AD8A0010E0E5E11D008260550CC
:10022000D8B0053C09260650D8B0063C0A2607502F
:10023000D8B0073C0B26E86AD8B0010E0E2602366D
:10024000070E0C6E0234083609360A360B360E36A7
:10025000045002A012D0085E0550D8A0053C095EEB
:100260000650D8A0063C0A5E0750D8A0073C0B5E9B
:10027000E86AD8A0010E0E5E11D008260550D8B04D
:10028000053C09260650D8B0063C0A260750D8B0CF
:10029000073C0B26E86AD8B0010E0E2602360C2E5B
:1002A000D1D70134083609360A360B360E360450DB
:1002B00002A012D0085E0550D8A0053C095E065089
:1002C000D8A0063C0A5E0750D8A0073C0B5EE86A3F
:1002D000D8A0010E0E5E11D008260550D8B0053CFE
:1002E00009260650D8B0063C0A260750D8B0073C6D
:1002F0000B26E86AD8B0010E0E260136070E0C6EEA
:100300000134083609360A360B360E36045001A081
:1003100012D0085E0550D8A0053C095E0650D8A052
:10032000063C0A5E0750D8A0073C0B5EE86AD8A0DE
:10033000010E0E5E11D008260550D8B0053C0926E6
:100340000650D8B0063C0A260750D8B0073C0B260A
:10035000E86AD8B0010E0E2601360C2ED1D7003433
:10036000083609360A360B360E36045001A012D074
:10037000085E0550D8A0053C095E0650D8A0063C92
:100380000A5E0750D8A0073C0B5EE86AD8A0010EB1
:100390000E5E11D008260550D8B0053C092606503F
:1003A000D8B0063C0A260750D8B0073C0B26E86AAE
:1003B000D8B0010E0E260036070E0C6E003408363B
:1003C00009360A360B360E36045000A012D0085EED
:1003D0000550D8A0053C095E0650D8A0063C0A5E30
:1003E0000750D8A0073C0B5EE86AD8A0010E0E5E4D
:1003F00011D008260550D8B0053C09260650D8B0C3
:10040000063C0A260750D8B0073C0B26E86AD8B04D
:10041000010E0E2600360C2ED1D700B00ED004509F
:1004200008260550D8B0053C09260650D8B0063C31
:0C0430000A260750D8B0073C0B2612002B
:10043C00949E949C9398939A939C939E829E829C58
:10044C00819E819C819A8198EADDE9DDE8DD818AD3
:10045C008188828EDDDD829EE2DD828ED9DD829EF8
:10046C00DEDD828ED5DD829EDADD8198828ED0DD56
:10047C00829ED5DD828ECCDD829E819A818E828E8B
:10048C00C7DD829ECCDD819E8188828EC1DD829EFD
:10049C008198828EBDDD829EC2DD828EB9DD829E08
:1004AC008188828EB5DD829EBADD8198828EB0DD28
:1004BC00829E818E818C818A8188828EA9DD829E2A
:0604CC00AEDD30801200DD
:1004D2000900F5CFE6FF0006FBE10106F9E1120093
:1004E2001FC035F020C036F0100E046E270E056EC8
:1004F200000E066E076E31C000F032C001F033C04C
:1005020002F034C003F023DE300E002635C0E1FFD6
:1005120036C0E2FF00C0E6FF010E1F24356E000E5A
:100522002020366EE80E046E030E056E000E066E77
:10053200076E31C000F032C001F033C002F034C0A7
:1005420003F005DE0A0E046E000E056E066E076EDF
:10055200FEDD08C000F009C001F00AC002F00BC0C5
:1005620003F0300E002635C0E1FF36C0E2FF00C0C6
:10057200E6FF020E1F24356E000E2020366E640E3A
:10058200046E000E056E066E076E31C000F032C0BA
:1005920001F033C002F034C003F0D9DD0A0E046E5C
:1005A200000E056E066E076ED2DD08C000F009C0AF
:1005B20001F00AC002F00BC003F0300E002635C075
:1005C200E1FF36C0E2FF00C0E6FF030E1F24356ED6
:1005D200000E2020366E0A0E046E000E056E066EA8
:1005E200076E31C000F032C001F033C002F034C0F7
:1005F20003F0ADDD0A0E046E000E056E066E076E88
:10060200A6DD08C000F009C001F00AC002F00BC06C
:1006120003F0300E002635C0E1FF36C0E2FF00C015
:10062200E6FF040E1F24356E000E2020366E0A0EE1
:10063200046E000E056E066E076E31C000F032C009
:1006420001F033C002F034C003F081DD08C000F0D5
:1006520009C001F00AC002F00BC003F0300E002600
:1006620035C0E1FF36C0E2FF00C0E6FF020E376E82
:10067200040E386E1FC039F020C03AF02BDD120094
:100682000B6A0A6A096A00500402F4CF09F0F3CF38
:1006920008F001500502F4CF0BF0F3CF0AF000503E
:1006A2000502F3500926F4500A22E86A0B2201508F
:1006B2000402F3500926F4500A22E86A0B2208C009
:1006C20000F009C001F00AC002F00BC003F01200F2
:1006D200C6EC03F0070EB46E0F0EC16E946A936AF5
:1006E200806A100E926E680ED56EA7DE010E3D6E08
:1006F200ADDC0C0E3D6EAADC010E376E040E386EB8
:10070200210E396E000E3A6EE5DCD58ED66AD76AB6
:1007120080863D0E0B6EE10E0C6E3F0E0D6E0D2EA1
:10072200FED70C2EFCD70B2EFAD7000000008096C5
:10073200D59ED7CF01F0006AD6500026000E0122C6
:100742003C0E046E000E056E9BDF00C02CF001C053
:100752002DF0000E01BEFF0E2E6E2F6E2CC031F05A
:100762002DC032F02EC033F02FC034F0B9DECDD719
:02077200FFD7AF
:10078C0010EE15F0170E006E010E016E740EF66E63
:0E079C00070EF76E000EF86E69EC02F0120008
:0A07740030303030302052504D007C
:02077E00150064
:0B078000546163686F6D657465720062
:020000040030CA
:0E000000210E1F1EFF8381FF0FC00FE00F4077
:00000001FF
